{
  "contractName": "BasicToken",
  "abi": [
    {
      "constant": true,
      "inputs": [
        {
          "name": "",
          "type": "address"
        }
      ],
      "name": "balances",
      "outputs": [
        {
          "name": "",
          "type": "uint256"
        }
      ],
      "payable": false,
      "stateMutability": "view",
      "type": "function"
    },
    {
      "constant": true,
      "inputs": [],
      "name": "_decimals",
      "outputs": [
        {
          "name": "",
          "type": "uint8"
        }
      ],
      "payable": false,
      "stateMutability": "view",
      "type": "function"
    },
    {
      "constant": true,
      "inputs": [],
      "name": "_totalSupply",
      "outputs": [
        {
          "name": "",
          "type": "uint256"
        }
      ],
      "payable": false,
      "stateMutability": "view",
      "type": "function"
    },
    {
      "constant": true,
      "inputs": [
        {
          "name": "",
          "type": "address"
        },
        {
          "name": "",
          "type": "address"
        }
      ],
      "name": "allowed",
      "outputs": [
        {
          "name": "",
          "type": "uint256"
        }
      ],
      "payable": false,
      "stateMutability": "view",
      "type": "function"
    },
    {
      "constant": true,
      "inputs": [],
      "name": "_symbol",
      "outputs": [
        {
          "name": "",
          "type": "string"
        }
      ],
      "payable": false,
      "stateMutability": "view",
      "type": "function"
    },
    {
      "constant": true,
      "inputs": [],
      "name": "_name",
      "outputs": [
        {
          "name": "",
          "type": "string"
        }
      ],
      "payable": false,
      "stateMutability": "view",
      "type": "function"
    },
    {
      "inputs": [
        {
          "name": "_initialAmount",
          "type": "uint256"
        },
        {
          "name": "_tokenName",
          "type": "string"
        },
        {
          "name": "_decimalUnits",
          "type": "uint8"
        },
        {
          "name": "_tokenSymbol",
          "type": "string"
        }
      ],
      "payable": false,
      "stateMutability": "nonpayable",
      "type": "constructor"
    },
    {
      "anonymous": false,
      "inputs": [
        {
          "indexed": false,
          "name": "code",
          "type": "uint256"
        },
        {
          "indexed": false,
          "name": "message",
          "type": "string"
        }
      ],
      "name": "ErrorMessage",
      "type": "event"
    },
    {
      "anonymous": false,
      "inputs": [
        {
          "indexed": true,
          "name": "owner",
          "type": "address"
        },
        {
          "indexed": true,
          "name": "spender",
          "type": "address"
        },
        {
          "indexed": false,
          "name": "value",
          "type": "uint256"
        }
      ],
      "name": "Approval",
      "type": "event"
    },
    {
      "anonymous": false,
      "inputs": [
        {
          "indexed": true,
          "name": "from",
          "type": "address"
        },
        {
          "indexed": true,
          "name": "to",
          "type": "address"
        },
        {
          "indexed": false,
          "name": "value",
          "type": "uint256"
        }
      ],
      "name": "Transfer",
      "type": "event"
    },
    {
      "constant": true,
      "inputs": [],
      "name": "name",
      "outputs": [
        {
          "name": "",
          "type": "string"
        }
      ],
      "payable": false,
      "stateMutability": "view",
      "type": "function"
    },
    {
      "constant": true,
      "inputs": [],
      "name": "symbol",
      "outputs": [
        {
          "name": "",
          "type": "string"
        }
      ],
      "payable": false,
      "stateMutability": "view",
      "type": "function"
    },
    {
      "constant": true,
      "inputs": [],
      "name": "decimals",
      "outputs": [
        {
          "name": "",
          "type": "uint8"
        }
      ],
      "payable": false,
      "stateMutability": "view",
      "type": "function"
    },
    {
      "constant": true,
      "inputs": [],
      "name": "totalSupply",
      "outputs": [
        {
          "name": "",
          "type": "uint256"
        }
      ],
      "payable": false,
      "stateMutability": "view",
      "type": "function"
    },
    {
      "constant": false,
      "inputs": [
        {
          "name": "_to",
          "type": "address"
        },
        {
          "name": "_value",
          "type": "uint256"
        }
      ],
      "name": "transfer",
      "outputs": [
        {
          "name": "success",
          "type": "bool"
        }
      ],
      "payable": false,
      "stateMutability": "nonpayable",
      "type": "function"
    },
    {
      "constant": false,
      "inputs": [
        {
          "name": "_from",
          "type": "address"
        },
        {
          "name": "_to",
          "type": "address"
        },
        {
          "name": "_value",
          "type": "uint256"
        }
      ],
      "name": "transferFrom",
      "outputs": [
        {
          "name": "success",
          "type": "bool"
        }
      ],
      "payable": false,
      "stateMutability": "nonpayable",
      "type": "function"
    },
    {
      "constant": true,
      "inputs": [
        {
          "name": "_owner",
          "type": "address"
        }
      ],
      "name": "balanceOf",
      "outputs": [
        {
          "name": "balance",
          "type": "uint256"
        }
      ],
      "payable": false,
      "stateMutability": "view",
      "type": "function"
    },
    {
      "constant": false,
      "inputs": [
        {
          "name": "_spender",
          "type": "address"
        },
        {
          "name": "_value",
          "type": "uint256"
        }
      ],
      "name": "approve",
      "outputs": [
        {
          "name": "success",
          "type": "bool"
        }
      ],
      "payable": false,
      "stateMutability": "nonpayable",
      "type": "function"
    },
    {
      "constant": true,
      "inputs": [
        {
          "name": "_owner",
          "type": "address"
        },
        {
          "name": "_spender",
          "type": "address"
        }
      ],
      "name": "allowance",
      "outputs": [
        {
          "name": "remaining",
          "type": "uint256"
        }
      ],
      "payable": false,
      "stateMutability": "view",
      "type": "function"
    },
    {
      "constant": false,
      "inputs": [
        {
          "name": "addresses",
          "type": "address[]"
        },
        {
          "name": "values",
          "type": "uint256[]"
        }
      ],
      "name": "massTransfer",
      "outputs": [
        {
          "name": "errorCode",
          "type": "uint256"
        },
        {
          "name": "count",
          "type": "uint256"
        }
      ],
      "payable": false,
      "stateMutability": "nonpayable",
      "type": "function"
    }
  ],
  "bytecode": "0x608060405234801561001057600080fd5b50604051610a6c380380610a6c8339810160409081528151602080840151838501516060860151600160a060020a033316600090815280855295909520849055600584905590850180519395909491939101916100729160029186019061009f565b506003805460ff191660ff8416179055805161009590600490602084019061009f565b505050505061013a565b828054600181600116156101000203166002900490600052602060002090601f016020900481019282601f106100e057805160ff191683800117855561010d565b8280016001018555821561010d579182015b8281111561010d5782518255916020019190600101906100f2565b5061011992915061011d565b5090565b61013791905b808211156101195760008155600101610123565b90565b610923806101496000396000f3006080604052600436106100e55763ffffffff7c010000000000000000000000000000000000000000000000000000000060003504166302af209581146100ea57806306fdde031461012f578063095ea7b3146101b957806318160ddd146101f157806323b872dd1461021857806327e235e314610242578063313ce5671461026357806332424aa31461028e5780633eaaf86b146102a35780635c658165146102b857806370a08231146102df57806395d89b4114610300578063a9059cbb14610315578063b09f126614610339578063d28d88521461034e578063dd62ed3e14610363575b600080fd5b3480156100f657600080fd5b50610116602460048035828101929082013591813591820191013561038a565b6040805192835260208301919091528051918290030190f35b34801561013b57600080fd5b50610144610485565b6040805160208082528351818301528351919283929083019185019080838360005b8381101561017e578181015183820152602001610166565b50505050905090810190601f1680156101ab5780820380516001836020036101000a031916815260200191505b509250505060405180910390f35b3480156101c557600080fd5b506101dd600160a060020a0360043516602435610518565b604080519115158252519081900360200190f35b3480156101fd57600080fd5b50610206610582565b60408051918252519081900360200190f35b34801561022457600080fd5b506101dd600160a060020a0360043581169060243516604435610588565b34801561024e57600080fd5b50610206600160a060020a0360043516610690565b34801561026f57600080fd5b506102786106a2565b6040805160ff9092168252519081900360200190f35b34801561029a57600080fd5b506102786106ab565b3480156102af57600080fd5b506102066106b4565b3480156102c457600080fd5b50610206600160a060020a03600435811690602435166106ba565b3480156102eb57600080fd5b50610206600160a060020a03600435166106d7565b34801561030c57600080fd5b506101446106f2565b34801561032157600080fd5b506101dd600160a060020a0360043516602435610753565b34801561034557600080fd5b506101446107e6565b34801561035a57600080fd5b50610144610874565b34801561036f57600080fd5b50610206600160a060020a03600435811690602435166108cc565b60008080808087861461039c57600080fd5b60009250600091505b87821080156103b657506201adb05a115b15610474578686838181106103c757fe5b9050602002013590506103f789898481811015156103e157fe5b90506020020135600160a060020a031682610753565b151561046457604080517f08c379a000000000000000000000000000000000000000000000000000000000815260206004820152600b60248201527f6e6f207472616e73666572000000000000000000000000000000000000000000604482015290519081900360640190fd5b60019283019291909101906103a5565b506001989197509095505050505050565b60028054604080516020601f600019610100600187161502019094168590049384018190048102820181019092528281526060939092909183018282801561050e5780601f106104e35761010080835404028352916020019161050e565b820191906000526020600020905b8154815290600101906020018083116104f157829003601f168201915b5050505050905090565b600160a060020a03338116600081815260016020908152604080832094871680845294825280832086905580518681529051929493927f8c5be1e5ebec7d5bd14f71427d1e84f3dd0314c0f7b2291e5b200ac8c7c3b925929181900390910190a350600192915050565b60055490565b600160a060020a038084166000818152600160209081526040808320339095168352938152838220549282528190529182205483118015906105ca5750828110155b15156105d557600080fd5b600160a060020a038085166000908152602081905260408082208054870190559187168152208054849003905560001981101561063a57600160a060020a03808616600090815260016020908152604080832033909416835292905220805484900390555b83600160a060020a031685600160a060020a03167fddf252ad1be2c89b69c2b068fc378daa952ba7f163c4a11628f55a4df523b3ef856040518082815260200191505060405180910390a3506001949350505050565b60006020819052908152604090205481565b60035460ff1690565b60035460ff1681565b60055481565b600160209081526000928352604080842090915290825290205481565b600160a060020a031660009081526020819052604090205490565b60048054604080516020601f600260001961010060018816150201909516949094049384018190048102820181019092528281526060939092909183018282801561050e5780601f106104e35761010080835404028352916020019161050e565b600160a060020a03331660009081526020819052604081205482111561077857600080fd5b600160a060020a0333811660008181526020818152604080832080548890039055938716808352918490208054870190558351868152935191937fddf252ad1be2c89b69c2b068fc378daa952ba7f163c4a11628f55a4df523b3ef929081900390910190a350600192915050565b6004805460408051602060026001851615610100026000190190941693909304601f8101849004840282018401909252818152929183018282801561086c5780601f106108415761010080835404028352916020019161086c565b820191906000526020600020905b81548152906001019060200180831161084f57829003601f168201915b505050505081565b6002805460408051602060018416156101000260001901909316849004601f8101849004840282018401909252818152929183018282801561086c5780601f106108415761010080835404028352916020019161086c565b600160a060020a039182166000908152600160209081526040808320939094168252919091522054905600a165627a7a72305820bfbcaa48adc2d9747193810aa59616055e3115423b80f742e162d793a54f16720029",
  "source": "/*\nImplements EIP20 token standard: https://github.com/ethereum/EIPs/blob/master/EIPS/eip-20.md\n.*/\n\n\npragma solidity ^0.4.23;\n\nimport \"./ERC20.sol\";\nimport \"../helpers/MassTransferERC20.sol\";\n\n\ncontract BasicToken is ERC20 {\n\n    event ErrorMessage(uint code, string message);\n\n    uint256 constant private MAX_UINT256 = 2**256 - 1;\n    mapping (address => uint256) public balances;\n    mapping (address => mapping (address => uint256)) public allowed;\n    /*\n    NOTE:\n    The following variables are OPTIONAL vanities. One does not have to include them.\n    They allow one to customise the token contract & in no way influences the core functionality.\n    Some wallets/interfaces might not even bother to look at this information.\n    */\n    string public _name;                   //fancy name: eg Simon Bucks\n    uint8 public _decimals;                //How many decimals to show.\n    string public _symbol;                 //An identifier: eg SBX\n    uint256 public _totalSupply;\n\n    constructor(\n        uint256 _initialAmount,\n        string _tokenName,\n        uint8 _decimalUnits,\n        string _tokenSymbol\n    ) public {\n        balances[msg.sender] = _initialAmount;               // Give the creator all initial tokens\n        _totalSupply = _initialAmount;                        // Update total supply\n        _name = _tokenName;                                   // Set the name for display purposes\n        _decimals = _decimalUnits;                            // Amount of decimals for display purposes\n        _symbol = _tokenSymbol;                               // Set the symbol for display purposes\n    }\n\n    function name() public view returns (string) {\n        return _name;\n    }\n\n\tfunction symbol() public view returns (string) {\n        return _symbol;\n    }\n\n\tfunction decimals() public view returns (uint8) {\n        return _decimals;\n    }\n\n    function totalSupply() public view returns (uint256) {\n        return _totalSupply;\n    }\n\n    function transfer(address _to, uint256 _value) public returns (bool success) {\n        require(balances[msg.sender] >= _value);\n        balances[msg.sender] -= _value;\n        balances[_to] += _value;\n        emit Transfer(msg.sender, _to, _value); //solhint-disable-line indent, no-unused-vars\n        return true;\n    }\n\n    function transferFrom(address _from, address _to, uint256 _value) public returns (bool success) {\n        uint256 allowance = allowed[_from][msg.sender];\n        require(balances[_from] >= _value && allowance >= _value);\n        balances[_to] += _value;\n        balances[_from] -= _value;\n        if (allowance < MAX_UINT256) {\n            allowed[_from][msg.sender] -= _value;\n        }\n        emit Transfer(_from, _to, _value); //solhint-disable-line indent, no-unused-vars\n        return true;\n    }\n\n    function balanceOf(address _owner) public view returns (uint256 balance) {\n        return balances[_owner];\n    }\n\n    function approve(address _spender, uint256 _value) public returns (bool success) {\n        allowed[msg.sender][_spender] = _value;\n        emit Approval(msg.sender, _spender, _value); //solhint-disable-line indent, no-unused-vars\n        return true;\n    }\n\n    function allowance(address _owner, address _spender) public view returns (uint256 remaining) {\n        return allowed[_owner][_spender];\n    }\n\n    function massTransfer(address[] addresses, uint[] values) external returns (uint errorCode, uint count) {\n        require(addresses.length == values.length);\n\n        uint success = 0;\n        for (uint idx = 0; idx < addresses.length && gasleft() > 110000; idx++) {\n            uint value = values[idx];\n            if (!transfer(addresses[idx], value)) {\n                revert(\"no transfer\");\n            }\n            success++;\n        }\n\n        return (1, success);\n    }\n}",
  "sourcePath": "/Users/alesanro/Documents/Projects/Blockchain/ethereum-smart-contracts/contracts/erc20/BasicToken.sol",
  "compiler": {
    "name": "solc",
    "version": "0.4.23+commit.124ca40d.Emscripten.clang"
  },
  "schemaVersion": "2.0.0",
  "updatedAt": "2018-05-24T17:44:25.869Z"
}